:100000000C9434000C943E000C943E000C943E0082
:100010000C943E000C943E000C943E000C943E0068
:100020000C943E000C943E000C943E000C943E0058
:100030000C943E000C943E000C943E000C943E0048
:100040000C943E000C943E000C943E000C943E0038
:100050000C943E000C943E000C943E000C943E0028
:100060000C943E000C943E0011241FBECFEFD4E050
:10007000DEBFCDBF0E9468000C947E000C9400008F
:10008000E4E6F0E09081977F9083962F93709093B1
:1000900080006C70660F660F660F862B8093810060
:1000A000109282005093890040938800109285003E
:1000B0001092840080E286BBEFE6F0E080818360EE
:1000C0008083089586B3869581700895B19A0895C6
:1000D00080EC8AB94FEF50E064E083E00E9440007A
:1000E0008BB18F7380688BB90E9462008823E1F323
:1000F0000E9466008BB180588BB9F6CFF894FFCF81
:00000001FF
