:100000000C945E000C9473000C9473000C947300B9
:100010000C9473000C9473000C9473000C94730094
:100020000C9473000C9473000C9473000C94730084
:100030000C9473000C9473000C9473000C94730074
:100040000C9473000C9473000C9473000C94730064
:100050000C9473000C9473000C9473000C94730054
:100060000C9473000C9473004C696E652031206C05
:100070006F6E676572207468616E2031342063682A
:1000800061726163746572730A004C696E65203237
:10009000206C6F6E676572207468616E2031342049
:1000A00063686172616374657273000708131414E6
:1000B00013080700100808080810000011241FBECC
:1000C000CFEFD4E0DEBFCDBF11E0A0E0B1E0E4E3CC
:1000D000F4E002C005900D92AA32B107D9F70E9450
:1000E0006B010C9418020C940000289A00C0289808
:1000F0000895CF93C82F662311F0299A01C029983B
:100100005D98549A559A569A579A5F985E985D985A
:100110005C98CC230CF45F9AC6FD5E9AC5FD5D9A8F
:10012000C4FD5C9A0E9475005F985E985D985C982B
:10013000C3FD5F9AC2FD5E9AC1FD5D9AC0FD5C9AE7
:100140000E9475005C9A5D9A5E9A5F9ACF910895BD
:10015000882311F0299A01C029985D9A54985598DE
:1001600056985798289A00C04C9902C080E001C068
:1001700080E14D9980624E9980644F9980682898FB
:1001800000C0289A00C04C9981604D9982604E99B8
:1001900084604F9988602898089580E00E94A800A4
:1001A0008823DCF384E090E00197F1F780E00E947F
:1001B000A8000895CF93C82F0E94CD0060E08C2F37
:1001C0000E947900CF910895CF93C82F0E94CD004F
:1001D00061E08C2F0E947900CF910895611104C0D5
:1001E00080580E94DA00089580540E94DA00089531
:1001F00081E00E94DA000895CF93C82F0E94CD00BD
:10020000CA3049F4803410F480E401C080E08058A2
:100210000E94DA0004C061E08C2F0E947900CF9127
:100220000895CF93DF93EC018991882329F00E94F0
:10023000FC0089918111FBCFDF91CF910895CF937D
:10024000DF93EC012196FC018491882339F00E9410
:10025000FC00FE01219684918111F9CFDF91CF91AD
:1002600008951F93CF93DF93182F219A559A209AC0
:10027000549A559A569A579AE0E0FDE73197F1F76C
:100280005D9A5C9A0E947500E0E0F7E23197F1F721
:100290000E947500C0E8D0E0FE013197F1F70E949E
:1002A0007500FE013197F1F75C980E947500219767
:1002B000F1F788E20E94DA0088E00E94DA000E94EA
:1002C000F80086E00E94DA00812F0E94DA00DF91B8
:1002D000CF911F910895CF93DF93CDB7DEB72797C6
:1002E0000FB6F894DEBF0FBECDBF52985A9A8CE07D
:1002F0000E943101E12CF12C0E94F80080E091E095
:100300000E94110181E191E00E94110161E087E00A
:100310000E94EE008AE30E94FC008EE00E94DA0058
:1003200088E191E00E9411010E94F80088E690E0C7
:100330000E941F018AE890E00E941F0188E10E944C
:10034000DA008CE00E94DA000E94F8004AE050E0F7
:10035000BE016F5F7F4F86E890E00E94D301CE011F
:1003600001960E9411010E94F8008EE191E00E9426
:10037000110180E40E94DA008701F801E555FF4F82
:1003800084910E94E4000F5F1F4F00311105A9F70F
:1003900061E080E00E94EE0080E00E94FC0081E0CD
:1003A0000E94FC00A9CFFB019F01E8944230C4F0F9
:1003B0004532B4F44A3029F497FB1EF490958195A8
:1003C0009F4F642F77270E940402805D8A330CF0D0
:1003D000895D8193CB010097A1F716F45DE25193FB
:1003E0001082C9010C94F401DC01FC01672F7191AA
:1003F0007723E1F7329704C07C916D93708362910B
:10040000AE17BF07C8F30895AA1BBB1B51E107C075
:10041000AA1FBB1FA617B70710F0A61BB70B881F94
:10042000991F5A95A9F780959095BC01CD01089523
:04043000F894FFCF6E
:100434004C43442054657374204C696E6520310A22
:10044400004C696E652032004375724F6E00436F35
:0A045400707972696768743A20003D
:00000001FF
