S0170000446F787967656E206578616D706C652E7372656323
S11300000C9435000C9407010C9452000C9452008B
S11300100C9452000C9452000C9452000C94520014
S11300200C9452000C9452000C9452000C94520004
S11300300C9452000C9452000C9452000C945200F4
S11300400C9452000C9452000C9452000C945200E4
S11300500C9452000C9452000C9452000C945200D4
S11300600C9452000C9452002D0111241FBECFEFAA
S1130070D4E0DEBFCDBF21E0A0E0B1E001C01D921D
S1130080A430B207E1F710E0CAE6D0E004C022973A
S1130090FE010E943601C836D107C9F70E94040147
S11300A00C943A010C94000084B1837C84B984B12B
S11300B08C6284B981E58CBD81E08DBD08958EBDCF
S11300C00DB407FEFDCF8EB5089528980895299A9A
S11300D00895299808950F931F93CF93DF93EC010C
S11300E0062F142F0E946900802F80620E945F00F7
S11300F08883812F0E945F000E946700DF91CF9167
S11301001F910F910895209A219A0E9465000E94E0
S11301106700269880E480936D0084E080936800F3
S11301200E9454002FE788E391E0215080409040E2
S1130130E1F700C0000078940895CF93DF93EC01B9
S1130140613039F44AE460E00E946B0081E0898305
S113015005C04BE460E00E946B001982DF91CF91EF
S11301600895CF93DF93EC010E9469008FEF0E9402
S11301705F0088830E946700DF91CF910895462F26
S11301804F77FC01428365E00E946B000895462F7F
S11301904F73FC01438361E10E946B0008950F9348
S11301A01F93CF93DF93EC01062F142F0E9483003B
S11301B0602FCE010E94BF00612FCE010E94C700B4
S11301C060E0CE010E949D00DF91CF911F910F91BD
S11301D00895CF93DF93EC018981813061F4CE01DE
S11301E00E94B10060E0CE010E949D0040E367E000
S11301F0CE010E946B00DF91CF910895E89A82E0CE
S113020080936900789408950E94FE00FFCF1F92A6
S11302100F920FB60F9211242F933F934F935F9336
S11302206F937F938F939F93AF93BF93EF93FF93BA
S113023080E091E00E94E900FF91EF91BF91AF91BE
S11302409F918F917F916F915F914F913F912F91EA
S11302500F900FBE0F901F90189542E061E080E070
S113026091E00E94CF000895EE0FFF1F0590F491D6
S10B0270E02D0994F894FFCF7E
S9030000FC
