S01D00005377616D70436F6F6C6572436F6E74726F6C6C65722E7372656377
S11300000C9434000C943E000C943E000C943E007E
S11300100C943E000C943E000C943E000C943E0064
S11300200C943E000C943E000C943E000C943E0054
S11300300C943E000C943E000C943E000C943E0044
S11300400C943E000C943E000C943E000C943E0034
S11300500C943E000C943E000C943E000C943E0024
S11300600C943E000C943E0011241FBECFEFD4E04C
S1130070DEBFCDBF0E9445000C9479000C940000B3
S113008080E284B98FEF8AB908950E94400080E22B
S113009095B1982795B92FEF3DE399E4215030406D
S11300A09040E1F700C000009BB198279BB92FEF67
S11300B03DE399E4215030409040E1F700C0000056
S11300C095B1982795B92FEF3DE399E4215030403D
S11300D09040E1F700C000009BB198279BB92FEF37
S11300E03DE399E4215030409040E1F700C0000026
S10900F0CFCFF894FFCF0E
S9030000FC
