S013000050574D70726163746963652E73726563D2
S11300000C9434000C943E000C943E000C943E007E
S11300100C943E000C943E000C943E000C943E0064
S11300200C943E000C943E000C943E000C943E0054
S11300300C943E000C943E000C943E000C943E0044
S11300400C943E000C943E000C943E000C943E0034
S11300500C943E000C943E000C943E000C943E0024
S11300600C943E000C943E0011241FBECFEFD4E04C
S1130070DEBFCDBF0E944F000C94A3000C9400007F
S113008080E284B98FEF8AB9089583EA84BD81E060
S113009085BD93E29093B0008093B10008950E94CF
S11300A040000E94450060E22FEF30E040E050E065
S11300B0E4EBF0E085B1862785B9C90187BDAFE0DF
S11300C0B7E21197F1F700C000000197B8F7CA0131
S11300D087BDAFE0B7E21197F1F700C000000196C9
S11300E08115B1E09B07A1F7C90188BDAFE0B7E274
S11300F01197F1F700C000000197B8F7CA0188BD55
S1130100AFE0B7E21197F1F700C000000196811546
S1130110B1E09B07A1F7C9018083AFE0B7E2119773
S1130120F1F700C000000197B8F7CA018083AFE07F
S1130130B7E21197F1F700C0000001968115B1E014
S10D01409B07A1F7B7CFF894FFCF97
S9030000FC
