:100000000C94D2010C94FA010C94FA010C94FA01AC
:100010000C94FA010C94FA010C94FA010C94FA0174
:100020000C94FA010C94FA010C94FA010C94FA0164
:100030000C94FA010C94FA010C94FA010C94FA0154
:100040000C94FA010C94FA010C94FA010C94FA0144
:100050000C94FA010C94FA010C94FA010C94FA0134
:100060000C94FA010C94FA01000706000003024107
:10007000FE00000000000000000000000000000082
:10008000000000000000000000001F06100001003A
:1000900000000002060209010100000600098202B8
:1000A00018031800000000000000001F06101C00CC
:1000B0000001021800000000000000000000000025
:1000C0000044220000405203900064001F061038D4
:1000D00002FF0258630500000542000005420000CF
:1000E00000000000000001000100000000050610F3
:1000F00054000100000000000000000000000000AB
:1001000000000000000000000000000000001F06CA
:100110002000040402020001280001001804040564
:10012000050002280301020300002A040414001F32
:1001300006201C0D00032A000150524F58494D491A
:10014000545920312E326D000000000000040400DC
:100150001F06203805050004280301020500012AB6
:100160000604030200052A010140020404050500FB
:10017000001F06205406280301020700042A060473
:10018000090800072A040190012003000058020416
:1001900004001F0620700202000828000101180454
:1001A0000402020009280001041804040505000ADD
:1001B0002803001F06208C01020B00072A060402F8
:1001C00001000B2A07010004040202000C280001B0
:1001D000021804001F0620A8040505000D280301CD
:1001E000040E00062A46100201000E2A0601000431
:1001F00004020200001F0620C40F28000103180497
:1002000004050500102803010A1100062A461402FD
:100210000100112A06001F0620E00100040402026A
:1002200000122800010F180404050500132803011B
:10023000121400192A16001F0620FC0402010014E3
:100240002A19016446140302001529020100000462
:1002500004020200162800001F062118010A1804D3
:100260000405050017280301021800272A040409C1
:100270000000182A27010000001F0621340000009A
:10028000000000000404020200192800010599047E
:10029000040505001A2803010A00190621501B0055
:1002A000069946140908001B990601010000000088
:1002B00000000000000000000000000D06300018E3
:1002C0000201060118010107010000000000000002
:1002D0000000000000000000000000001F064000B9
:1002E0002A0701008004000B00002A060100080410
:1002F000000E00002A06010400040011001F064041
:100300001C00002A1901008204001400152A27018C
:1003100000800400180000990601040004001B0678
:100320004038001B00002A06010002040000000003
:100330002A05010010040000000000000000001B5E
:100340000660000000000000000000000000000047
:10035000000000000000000000000000000000009D
:1003600019067000190240020000000000000000A1
:10037000000000000000000000000000000000007D
:10038000000606F00003158C0000000000000000CD
:10039000000000000000000000000000000000005D
:1003A00000001A0911241FBECFEFD4E0DEBFCDBF7D
:1003B00011E0A0E0B1E0ECEDFBE102C005900D9290
:1003C000A23CB107D9F723E0A2ECB1E001C01D9235
:1003D000AE3CB207E1F713E0C4EAD3E004C02297D1
:1003E000FE010E94010BC23AD107C9F70E943907EA
:1003F0000C94EC0D0C94000020E1829FC0011124AC
:100400006091C2016F70682B6093C20189E00E9405
:10041000AE030895CF93DF93D82FC62F6091C2010A
:100420006D7F6093C20189E00E94AE03D11109C0C3
:100430006091C2016E7F6093C20189E00E94AE03A9
:1004400005C08091C20181608093C2016091C201A8
:1004500089E00E94AE0382E08A95F1F700C06091C6
:10046000C20162606093C20189E00E94AE038C2FDA
:1004700082958F700E94FC011092CC031092CB03E6
:100480006091C2016D7F6093C20189E00E94AE035A
:100490001092CC031092CB036091C2016260609312
:1004A000C20189E00E94AE038C2F8F700E94FC0174
:1004B0001092CC031092CB03DF91CF91089561E0AD
:1004C00080E00E940A021092CA031092CD0328EC29
:1004D00030E044E650E0CA010197F1F721503109BC
:1004E000D1F71092CC031092CB0308950E94C00361
:1004F00060E080E00E94AE0360E089E00E94AE030D
:100500008FE295E70197F1F700C000006091C2010A
:100510006D7F6093C20189E00E94AE036091C201C9
:100520006E7F6093C20189E00E94AE0392E09A95CB
:10053000F1F700C06091C20162606093C20189E07E
:100540000E94AE0382E00E94FC011092CC03109244
:10055000CB036091C2016D7F6093C20189E00E946C
:10056000AE0368E280E00E940A026CE080E00E9434
:100570000A0266E080E00E940A021092CA0310920A
:10058000CD0308950F931F93CF93DF938C01EB015D
:100590006230710549F06330710549F061307105D1
:1005A00049F060E070E008C064E170E005C064E517
:1005B00070E002C060E470E0600F711F60687F6FE0
:1005C00080E00E940A020093CA03C093CD03DF912A
:1005D000CF911F910F910895EF92FF920F931F9368
:1005E000CF93DF93E82EF92E082F192FC0E0D0E02B
:1005F00022C0F80161918F0181E00E940A022091DE
:10060000CA032F5F283219F02093CA0313C0109237
:10061000CA038091CD038F5F823019F08093CD03A0
:1006200002C01092CD036091CD0370E080E090E0B5
:100630000E94C2022196EE2DFF2DDF010D900020B9
:10064000E9F71197AE1BBF0BCA17DB0790F2DF91DA
:10065000CF911F910F91FF90EF9008951092B900E4
:1006600082E08093B800089594EA9093BC00ECEB8C
:10067000F0E090819923ECF79091B900987F983041
:1006800011F09031A1F48093BB0084E88093BC000A
:10069000ECEBF0E080818823ECF79091B900987F33
:1006A000983139F081E0903429F480E0089581E0B8
:1006B000089580E0089584E98093BC00ECEBF0E0BD
:1006C000808184FDFDCF08958093BB0084E88093F2
:1006D000BC00ECEBF0E080818823ECF79091B9004E
:1006E000987F81E0983209F480E0089584B1837C9A
:1006F00084B984B18C6284B981E58CBD08950E946F
:10070000760308956EBD0DB407FEFDCF8EB5089536
:100710002CB5862F817090E0880F991F8295929555
:10072000907F9827807F9827922F9F7D892B8CBD63
:1007300008958CB5962F93708C7F892B8CBD8DB5C9
:10074000669566958E7F682B6DBD08958CB5637038
:10075000660F660F837D682B6CBD0895CF93DF9382
:10076000D82FC62F80E40E9434038D2F0E9464038B
:100770008C2F0E9464030E945B03DF91CF91089548
:100780000E942E03089510927C0086E880937A00E0
:1007900010927B000895E89A83E08093690010929C
:1007A000800010928100089580EC8AB98BB18F731C
:1007B00080688BB95A9AE89AE8E6F0E08081846014
:1007C0008083EDE6F0E080818460808378940E94ED
:1007D000C3030E94CB03419A089521E0FC012083CA
:1007E00029E021830895DC01842F8E5F8C938DE0B6
:1007F00011968C931197E62FF72F819112968C9377
:100800001297139650E06E2F7F2F8A2F9B2F0E94F6
:100810000E0B0895FC01DB0185E080838FE081836E
:1008200011968C91119783838C91828313968C916E
:100830001397858312968C9184830895FC01DB01C4
:1008400085E0808380E1818311968C911197838369
:100850008C91828313968C911397858312968C9139
:1008600084830895FC0182E0808381E18183DB0140
:100870008C918283089521E0FC0120832EE0218366
:10088000089521E0FC01208327E02183089521E0E1
:10089000FC01208323E121830895FF920F931F938E
:1008A000CF93DF93EC018B01FB018081998989173C
:1008B00008F50F2EF1E2FF2EF02D6F857889F89E56
:1008C000600D711D1124FB013196449150E04E5F83
:1008D0005F4F86E993E00E94050B86E993E00E9452
:1008E0001708882339F0F80180818F5F8083998908
:1008F000891718F3DF91CF911F910F91FF90089501
:100900009F92AF92BF92CF92DF92EF92FF920F939E
:100910001F93CF93DF931F92CDB7DEB77C0119826F
:100920000FEF1FEF0F2EF8E89F2EF02D0F2EF8E996
:10093000CF2EF3E0DF2EF02D0F2EFAE9AF2EF3E0ED
:10094000BF2EF02DF70121899981921730F4BE0155
:100950006F5F7F4FC7010E944D0401501109A9F03C
:1009600066E973E0C7010E94F509813051F4F60190
:100970008081843879F4F5019080892D815082300E
:1009800068F4F2E09F12DECF09C00F2EF1E89F2E2F
:10099000F02D04C00F2EF1E89F2EF02D892D0F9021
:1009A000DF91CF911F910F91FF90EF90DF90CF904B
:1009B000BF90AF909F9008950E945F022FE788E359
:1009C00091E0215080409040E1F700C0000060E0DD
:1009D00070E080E090E00E94C2028DEE91E00E9403
:1009E000EC0261E070E080E090E00E94C20285ECE1
:1009F00091E00E94EC0208954091000150910101A4
:100A00004E5F5F4F5093010140930001FC016081F4
:100A100070E0635071091616170664F4CA01019656
:100A2000282F241B30E026173707CCF390930101C1
:100A3000809300010895EF92FF920F931F93CF933D
:100A4000DF93EC010E94E60A07E112E00F2EF9E1C4
:100A5000EF2EF2E0FF2EF02D65E172E0CE010E9454
:100A6000F5098130C9F7F8018081843899F4F701DC
:100A70008081823031F486E192E00E94FC0481E0C2
:100A80000CC0813049F486E192E00E94FC040E948F
:100A9000E60AE2CF80E001C080E0DF91CF911F91B4
:100AA0000F91FF90EF900895CF93DF9365E172E08F
:100AB00087E392E00E94F509882309F47AC188E06F
:100AC000EBE1F1E0ADEEB1E001900D928A95E1F736
:100AD0008BE0E3E2F1E0A5ECB1E001900D928A95A4
:100AE000E1F70E94DC0480911702873809F4A3C063
:100AF00078F4843809F480C020F4813809F06DC19D
:100B000019C0853809F48AC0863809F066C1E6C084
:100B10008A3809F41DC138F4883809F491C089383D
:100B200009F05BC1AFC08C3809F400C18D3809F001
:100B300054C116C180911A0280934A028091180212
:100B4000823021F0833009F048C130C08CE0EEE201
:100B5000F1E0ADEEB1E001900D928A95E1F780E110
:100B6000EAE3F1E0A5ECB1E001900D928A95E1F79E
:100B70000E94DC0487E392E00E948004823009F442
:100B80002CC18AE0EAE4F1E0ADEEB1E001900D9213
:100B90008A95E1F78AE0E4E5F1E0A5ECB1E00190A7
:100BA0000D928A95E1F70E94DC0417C18BE0EEE517
:100BB000F1E0ADEEB1E001900D928A95E1F781E1AF
:100BC000E9E6F1E0A5ECB1E001900D928A95E1F73C
:100BD0000E94DC0480914902882339F060E570E0CE
:100BE00084EB90E00E94D009F8C060E270E084E6F7
:100BF00090E00E948F09F1C0809119028111FFCF0E
:100C000080911802893009F0E8C029E04AE152E0F9
:100C100066E087E392E00E944A09DFC01092C401B7
:100C20001092C30180914A0280934C021092640298
:100C30000E944109D2C08091180280934902CDC020
:100C40008091640281110CC063E087E392E00E940E
:100C50002609882329F00E94EC0981E08093640230
:100C6000809149028111B9C063E087E392E00E945C
:100C70002609882309F4B1C062E087E392E00E946C
:100C80002609ABC0809149028111A7C08091020161
:100C9000813009F0A2C080914D0290914E028132C4
:100CA00023E0920708F099C08039914008F495C07C
:100CB00063E087E392E00E942609882309F48DC04F
:100CC00062E087E392E00E942609882309F485C048
:100CD00061E087E392E00E94AB097FC08091490206
:100CE000811119C080911802833071F48091020142
:100CF000882331F01092020187E392E00E941B05E5
:100D0000809119020E94EF0A60E071E084EB90E0AC
:100D10000E948F0906C060E570E084EB90E00E94BD
:100D2000D009809119020E94EF0A57C0C8E1D2E0B1
:100D300069E172E088810E94F80A69E172E08881C5
:100D40000E941F0969E172E088810E94660745C020
:100D5000ECE4F2E0909118028081890F80833DC01D
:100D60008DE0EAE7F1E0ADEEB1E001900D928A95F9
:100D7000E1F7809118021F928F9387E891E09F938B
:100D80008F9385EC91E09F938F930E94170B0E94A5
:100D9000DC040F900F900F900F900F900F908091A8
:100DA00019028239D1F0ECE4F2E080818F5F808318
:100DB00014C08FE0E8E9F1E0ADEEB1E001900D92F2
:100DC0008A95E1F78BE0E3E2F1E0A5ECB1E0019078
:100DD0000D928A95E1F70E94DC04DF91CF9108958E
:100DE00085E090E09093C4018093C3010895089535
:100DF000823039F48AE590E09093C4018093C30176
:100E000008951092C4011092C30108951092C40174
:100E10001092C30183E091E09093440280934302D7
:100E200028E02093450288E690E090934702809363
:100E3000460289E1809348021092370289E080934C
:100E400038022093390285E080933D028FEF809332
:100E50003E0280933F0280934002109241028093B1
:100E6000420287E392E00E94A60A81E08093490251
:100E700008950E9476028FE0E7EAF1E0ADEEB1E07E
:100E800001900D928A95E1F78CE0E6EBF1E0A5EC9C
:100E9000B1E001900D928A95E1F70E94DC040E9476
:100EA000D4030E940607C0EC0E9454058BB19BB18D
:100EB0009C278F73892B8BB92FEF84E39CE0215003
:100EC00080409040E1F700C00000EECF873011F481
:100ED0000E94F0060895FC01DC01AC57BF4F1C9244
:100EE000DC01AB57BF4F1C921182128212A213A2D7
:100EF000DC01AD5BBF4F1C92DC01AC5BBF4F1C92B1
:100F0000DC01AC59BF4F1C92EB59FF4F1082089582
:100F1000F894FC01EB57FF4F208130E02F5F3F4FEB
:100F200023703078FC01EC57FF4F81E090819213E1
:100F300080E078940895FC01EC57FF4F2081FC017C
:100F4000EB57FF4F30812317B9F0FC0131E2239FAB
:100F5000E00DF11D112421E2DB0101900D922A9593
:100F6000E1F7FC01EC57FF4F808190E00196837020
:100F70009078808381E0089580E00895682F85E669
:100F800092E00E94820308951F93CF93DF93EC01B8
:100F9000FC01EB57FF4F208130E0C90101968370BF
:100FA0009078182FFB01A181FE01EC57FF4F808143
:100FB000811701F181E2829FA001839F500D1124CE
:100FC000FE01E40FF51F10829A012F5F3F4F2C0F97
:100FD0003D1FB0E01196FB0131964A2F5B2F6E2F1B
:100FE0007F2F822F932F0E940E0BCB57DF4F18833A
:100FF00081E001C080E0DF91CF911F910895E091E1
:101000007303F091740387818F3F81F03A9A808156
:10101000813049F4429A87EA91E60197F1F700C0DE
:10102000000042980895429A4298429A0895FC011D
:101030002181203250F4BC018CEE92E00E94C40762
:10104000882329F0299881E0089580E0089580E0C0
:101050000895CF92DF92EF92FF920F931F93CF9359
:10106000DF93CDB7DEB7A1970FB6F894DEBF0FBE02
:10107000CDBF2998BE016F5F7F4F8CEE92E00E943A
:101080009B07811102C019821A828A810E94BE07C1
:10109000809375038B810E94BE07809376034A81FB
:1010A000442351F050E041505109282F30E02417DB
:1010B00035070CF49A01822F803208F08FE18823E3
:1010C000F1F08E010C5F1F4F0F2EF7E7EF2EF3E0CC
:1010D000FF2EF02D81500F2EF5E0CF2ED12CF02DCC
:1010E000CC0EDD1EC80ED11CF80181918F010E942B
:1010F000BE07F70181937F010C151D05A9F7299AF9
:1011000083B7816083BF85E793E0A1960FB6F8941B
:10111000DEBF0FBECDBFDF91CF911F910F91FF902A
:10112000EF90DF90CF900895CF93DF93EC01E091A3
:101130007303F0917403828581112CC02A991DC01C
:101140000E942908FC012181222321F1BC0186E6AD
:1011500092E00E94C407811101C0FFCF86E692E0B1
:101160000E9488078823B1F0E0917303F091740323
:101170008285813079F4E9980DC090917003809157
:101180007103981739F086E692E00E948807811172
:1011900001C0299886E692E00E948807BE0186E693
:1011A00092E00E949B0791E0811101C090E0892F9D
:1011B000DF91CF9108959093740380937303089502
:1011C000CF93DF93EC0110927603109272030E948A
:1011D000DB0885E692E00E94760361E085E692E016
:1011E0000E9488036E8185E692E00E94990360E088
:1011F00085E692E00E94A6038CEE92E00E946B07C7
:1012000086E692E00E946B0722982A9A209A8885A7
:101210008F3F09F020980E94FF07299A85B1877CAB
:1012200085B98BE49DE10197F1F700C00000DF91E3
:10123000CF91089585E692E00E947F030895823061
:1012400021F4FB0180810E94F7060895262F269540
:1012500026952695FC01E20FF11D248D30E0677084
:10126000C90102C0959587956A95E2F78170089546
:1012700087E993E00E943B0486E993E00E94170807
:10128000089587E993E00E94ED0386E993E00E94C8
:10129000170808951F93CF93DF93CDB7DEB76597F7
:1012A0000FB6F894DEBF0FBECDBF342F752F122FAF
:1012B000862F90E00197FC01EE0FFF1F8E0F9F1FFE
:1012C000E091C503F091C603E80FF91F80818130DA
:1012D000C9F42531C8F46983FE013296422F50E0EB
:1012E000632F8E2F9F2F0E940E0B412FBE016F5F29
:1012F0007F4F87E993E00E94F30386E993E00E9421
:10130000170803C080E001C080E065960FB6F8942E
:10131000DEBF0FBECDBFDF91CF911F910895CF9358
:10132000DF9300D000D0CDB7DEB79A8389837C836A
:101330006B83BE016F5F7F4F87E993E00E940A04D1
:1013400086E993E00E9417080F900F900F900F907E
:10135000DF91CF9108950F931F93CF93DF931F9247
:10136000CDB7DEB78C016983BE016F5F7F4F87E920
:1013700093E00E94320486E993E00E9417088823D4
:1013800049F0D8015C96F801B49698E01D9211924C
:101390009150E1F70F90DF91CF911F910F91089538
:1013A000CF93DF9300D000D0CDB7DEB79A83898387
:1013B0007C836B83BE016F5F7F4F87E993E00E9460
:1013C0001E0486E993E00E9417080F900F900F907B
:1013D0000F90DF91CF91089587E993E00E94470431
:1013E00086E993E00E94170808950F931F93CF9307
:1013F000DF938C01EB01CB010E9494088130B9F599
:101400009A81983829F0993829F1963881F514C0D5
:101410009E012D5F3F4FD8015C962B960C5D1F4FB0
:1014200098E0F90141919F014D934991F801419351
:101430008F019150B1F71BC0D8015C96F801B496AA
:1014400098E01D9211929150E1F7F80114A693894A
:10145000958B0DC02B813C81F801378B268B2D811C
:101460003E81318F208F2F813885338F228FDF91FE
:10147000CF911F910F9108950F931F93CF93DF93F7
:10148000EC018881813009F05CC02FEF80E792E0A9
:10149000215080409040E1F700C000000E943809D0
:1014A00008E913E066E973E0CE010E94F509813096
:1014B000C9F7F80180818438A9F780919A038338AD
:1014C000A1F484E08093970381E88093980382E0FD
:1014D0008093990310929A0380939B0366E973E0CB
:1014E00086E692E00E94C4072CC0811115C084E0FA
:1014F0008093970381E88093980383E08093990316
:1015000010929A0382E080939B0366E973E086E67B
:1015100092E00E94C40715C0823899F484E0809359
:10152000970381E88093980381E080939903109258
:101530009A0310929B0366E973E086E692E00E94AC
:10154000C407DF91CF911F910F9108950F931F93BF
:10155000CF93DF938C01EC016C96DC019496E7EB62
:10156000F3E02FEB33E019921D921192E217F3078B
:10157000D1F71092BF031092C0031092C1031092D2
:10158000C2031092C3031092C403F80184859585A9
:101590009093C6038093C503878590899093C80371
:1015A0008093C703C8010E94E008C8010E943C0A5A
:1015B000FFEF24E38CE0F15020408040E1F700C0D1
:1015C0000000DF91CF911F910F91089587E993E07B
:1015D0000E94410486E993E00E9417080895833130
:1015E00031F0863121F08091C9030E94F8060895F8
:1015F000833021F4FB0180818093C9030895EE0FAD
:10160000FF1F0590F491E02D0994FB01DC0102C05D
:1016100005900D9241505040D8F70895FB01DC0130
:1016200002C001900D9241505040D8F70895AEE0AD
:10163000B0E0EDE1FBE00C94C30D0D891E8986E05E
:101640008C831A8309838FEF9FE79E838D83CE015E
:101650004996AC016F89788DCE0101960E94390BB5
:10166000EF81F885E00FF11F10822E96E4E00C94D4
:10167000DF0DACE0B0E0EFE3FBE00C94B50D7C01D6
:101680006B018A01FC0117821682838181FFC6C12A
:1016900088248394912C8C0E9D1EF7019381F60172
:1016A00093FD859193FF81916F01882309F4B2C165
:1016B000853239F493FD859193FF81916F018532D5
:1016C00029F4B70190E00E942B0DE7CF512C312C6B
:1016D00020E02032A8F48B3261F028F4803251F0FF
:1016E000833271F40BC08D3239F0803349F42160BC
:1016F00028C02260246025C0286023C0206121C04A
:1017000027FD27C0382F30533A3078F426FF06C023
:10171000FAE05F9E300D1124532E13C08AE0389EEC
:10172000300D1124332E20620CC08E3221F426FDA0
:1017300071C1206406C08C3611F4206802C088365E
:1017400041F4F60193FD859193FF81916F01811121
:10175000C0CF982F9554933018F09052933028F4BE
:101760000C5F1F4FFFE3F9830DC0833631F08337E1
:1017700071F0833509F05EC023C0F8018081898350
:101780000E5F1F4F44244394512C540115C038015F
:10179000F2E06F0E711CF801A080B18026FF03C03B
:1017A000652D70E002C06FEF7FEFC5012C870E94AE
:1017B000200D2C0183012C856FE7262E222218C0D4
:1017C0003801F2E06F0E711CF801A080B18026FF95
:1017D00003C0652D70E002C06FEF7FEFC5012C875D
:1017E0000E94150D2C012C8550E8252E222A8301FC
:1017F00023FC1CC006C0B70180E290E00E942B0DC4
:101800003A94832D90E048165906A8F30FC0F501CD
:1018100027FC859127FE81915F01B70190E00E942E
:101820002B0D31103A94F1E04F1A51084114510434
:1018300071F7EDC0843611F0893641F5F80127FFC4
:1018400007C060817181828193810C5F1F4F08C046
:1018500060817181882777FD8095982F0E5F1F4FDB
:101860004FE6B42EB22297FF09C0909580957095EF
:1018700061957F4F8F4F9F4FF0E8BF2A2AE030E0FD
:10188000A4010E94570DA82EA81843C0853731F433
:101890003FEEB32EB2222AE030E024C099EFB92EF9
:1018A000B2228F36B9F020F4883509F0B3C00DC0EC
:1018B000803721F0883709F0ADC002C020E1B22A9C
:1018C000B4FE0BC084E0B82A08C024FF09C0E6E0DB
:1018D000BE2A06C028E030E005C020E130E002C0AA
:1018E00020E132E0F801B7FE07C06081718182819A
:1018F00093810C5F1F4F06C06081718180E090E092
:101900000E5F1F4FA4010E94570DA82EA818FFE7D5
:10191000BF22B6FE0BC02B2D2E7FA51450F4B4FEB3
:101920000AC0B2FC08C02B2D2E7E05C07A2C2B2DB0
:1019300003C07A2C01C0752C24FF0DC0FE01EA0DF6
:10194000F11D8081803311F4297E09C022FF06C079
:101950007394739404C0822F867809F0739423FDE6
:1019600014C020FF0FC05A2C731460F4530C571886
:10197000732C08C0B70180E290E02C870E942B0DE9
:1019800073942C857314B0F304C0731410F43718D7
:1019900001C0312C24FF12C0B70180E390E02C87F6
:1019A0000E942B0D2C8522FF1EC021FF03C088E55D
:1019B00090E002C088E790E0B7010CC0822F8678E3
:1019C00091F021FD02C080E201C08BE227FD8DE293
:1019D000B70190E00E942B0D06C0B70180E390E0B4
:1019E0000E942B0D5A94A514C0F3AA94F401EA0D99
:1019F000F11DB701808190E00E942B0DA110F5CF61
:101A000006C0B70180E290E00E942B0D3A9431109D
:101A1000F8CF43CEF7012681378102C02FEF3FEF89
:101A2000C9012C96E2E10C94D10DFC0105906150A6
:101A300070400110D8F7809590958E0F9F1F0895E4
:101A4000FC016150704001900110D8F7809590958D
:101A50008E0F9F1F08950F931F93CF93DF938C01D9
:101A6000EB018B8181FD03C00FEF1FEF1AC082FFD6
:101A70000DC02E813F818C819D812817390764F428
:101A8000E881F9810193F983E88306C0E885F98547
:101A9000802F0995892B41F78E819F8101969F8325
:101AA0008E83C801DF91CF911F910F910895FA01A4
:101AB000AA27283051F1203181F1E8946F936E7F8D
:101AC0006E5F7F4F8F4F9F4FAF4FB1E03ED0B4E07E
:101AD0003CD0670F781F891F9A1FA11D680F791FBF
:101AE0008A1F911DA11D6A0F711D811D911DA11DD0
:101AF00020D009F468943F912AE0269F11243019E0
:101B0000305D3193DEF6CF010895462F4770405D7A
:101B10004193B3E00FD0C9F7F6CF462F4F70405D29
:101B20004A3318F0495D31FD4052419302D0A9F784
:101B3000EACFB4E0A6959795879577956795BA957E
:101B4000C9F700976105710508959B01AC010A2E44
:101B500006945795479537952795BA95C9F7620F1B
:101B6000731F841F951FA01D08952F923F924F92BF
:101B70005F926F927F928F929F92AF92BF92CF921D
:101B8000DF92EF92FF920F931F93CF93DF93CDB726
:101B9000DEB7CA1BDB0B0FB6F894DEBF0FBECDBF9E
:101BA00009942A88398848885F846E847D848C846F
:101BB0009B84AA84B984C884DF80EE80FD800C8178
:101BC0001B81AA81B981CE0FD11D0FB6F894DEBF5B
:0C1BD0000FBECDBFED010895F894FFCFCB
:101BDC000100010180000108000100040102000164
:101BEC008000018000010004020200206576656E11
:101BFC00742000617661696C61626C6520004576C9
:101C0C007420446576696365200053746172746551
:101C1C00643A20536574757020004572726F72209F
:101C2C00696E2000414349205365747570004576F8
:101C3C0074204465766963650053746172746564DD
:101C4C003A205374616E64627900414349204576B1
:101C5C00742050697065004572726F723A20506939
:101C6C00706520233A254400204E6F2041434920C3
:101C7C004576656E74730053656E696F7220507291
:101C8C006F6A6563740042542050756C73654F78AD
:021C9C00200026
:00000001FF
