S01100006865617274626561742E7372656363
S11300000C9434000C943E000C943E000C943E007E
S11300100C943E000C943E000C943E000C943E0064
S11300200C943E000C943E000C943E000C943E0054
S11300300C943E000C943E000C943E000C943E0044
S11300400C943E000C943E000C943E000C943E0034
S11300500C943E000C943E000C943E000C943E0024
S11300600C943E000C943E0011241FBECFEFD4E04C
S1130070DEBFCDBF0E9440000C9450000C940000E1
S11300808FEF84B990E285B1892785B92FEF39E6DE
S113009088E1215030408040E1F700C00000F3CFF8
S10700A0F894FFCFFE
S9030000FC
