:100000000C9434000C9448000C9446000C94460068
:100010000C9446000C9446000C9446000C94460048
:100020000C9446000C9446000C9446000C94460038
:100030000C9446000C9446000C9446000C94460028
:100040000C9446000C9446000C9446000C94460018
:100050000C9446000C9446000C9446000C94460008
:100060000C9446000C94460011241FBECFEFD4E040
:10007000DEBFCDBF21E0A0E0B1E001C01D92A23003
:10008000B207E1F70E9498000C94BF000C940000A6
:100090001F920F920FB60F9211248F939F938FE0B0
:1000A00097E20197F1F700C000004A9906C081E08D
:1000B00090E090930101809300019F918F910F90A8
:1000C0000FBE0F901F901895F999FECF92BD81BD7C
:1000D00060BDFA9AF99A0895F999FECF92BD81BD53
:1000E000F89A80B5089590E01816190604F520E0F6
:1000F00030E040E255B1542755B95FE768E371E05D
:10010000515060407040E1F700C0000055B15427E5
:1001100055B95FE768E371E0515060407040E1F726
:1001200000C000002F5F3F4F281739071CF30895C8
:1001300080E284B91AB884E08BB9E89A82E08093AF
:10014000690080E091E00E946C00C82FCF5F6C2FA7
:1001500080E091E00E9464008C2F0E9473007894EC
:1001600020E28091000190910101892BD1F385B1AA
:10017000822785B91092010110920001F2CFF89404
:02018000FFCFAF
:00000001FF
