:100000000C9434000C9451000C9451000C94510049
:100010000C9451000C9451000C9451000C9451001C
:100020000C9451000C9451000C9451000C9451000C
:100030000C9451000C9451000C9451000C945100FC
:100040000C9451000C9451000C9451000C945100EC
:100050000C9451000C9451000C9451000C945100DC
:100060000C9451000C94510011241FBECFEFD4E02A
:10007000DEBFCDBF11E0A0E0B1E0E6E2FAE002C0F1
:1000800005900D92A432B107D9F721E0A4E2B1E0C6
:1000900001C01D92A937B207E1F70E94DE020C945D
:1000A00011050C94000020E1829FC0011124609191
:1000B00024016F70682B6093240189E00E942A025A
:1000C0000895CF93DF93D82FC62F609124016D7FC1
:1000D0006093240189E00E942A02D11109C0609135
:1000E00024016E7F6093240189E00E942A0205C0EA
:1000F000809124018160809324016091240189E032
:100100000E942A0282E08A95F1F700C060912401E2
:1001100062606093240189E00E942A028C2F8295FC
:100120008F700E94530010927701109276016091B7
:1001300024016D7F6093240189E00E942A021092BD
:10014000770110927601609124016260609324012E
:1001500089E00E942A028C2F8F700E945300109217
:10016000770110927601DF91CF91089560E080E0F1
:100170000E942A0260E089E00E942A028FE295E74D
:100180000197F1F700C00000609124016D7F60933A
:10019000240189E00E942A02609124016E7F60930D
:1001A000240189E00E942A0292E09A95F1F700C0AA
:1001B0006091240162606093240189E00E942A0218
:1001C00082E00E94530010927701109276016091B4
:1001D00024016D7F6093240189E00E942A0268E275
:1001E00080E00E9461006CE080E00E94610066E0B7
:1001F00080E00E94610010927501109278010895CC
:100200000F931F93CF93DF938C01EB016130710546
:1002100059F01CF4209789F012C06230710539F052
:100220006330710561F406C020E430E008C024E1C9
:1002300030E005C024E530E002C020E030E0B90144
:10024000600F711F60687F6F80E00E946100009303
:100250007501C0937801DF91CF911F910F9108959F
:10026000EF92FF920F931F93CF93DF93E82EF92E17
:10027000082F192FC0E0D0E022C0F80161918F0152
:1002800081E00E946100209175012F5F283219F0F2
:100290002093750113C010927501809178018F5FD2
:1002A000823019F08093780102C010927801609139
:1002B000780170E080E090E00E9400012196EE2D30
:1002C000FF2DDF010D900020E9F71197AE1BBF0B4A
:1002D000CA17DB0790F2DF91CF911F910F91FF902A
:1002E000EF9008950E94CC01089567706069FC0149
:1002F00060830E9472010895FF920F931F93CF9322
:10030000DF938C01F62EEA01FC0180810E94D2016C
:100310008F2D0E940202F801808181600E94D2012B
:100320000E94140288830E941F0289830E94F9019F
:10033000DF91CF911F910F91FF900895CF93DF939D
:10034000D62FC42FFC0180810E94D2018D2F0E94E4
:1003500002028C2F0E9402020E94F901DF91CF91CC
:100360000895AB0160E00E947C010895CF93DF9374
:10037000EC01498161E00E949E0189818F77898328
:10038000DF91CF9108956076FC0121812F79622B56
:1003900061830E94B60108951092B90082E08093B3
:1003A000B800089594EA9093BC00ECEBF0E09081E3
:1003B0009923ECF79091B900987F983011F0903123
:1003C000A1F48093BB0084E88093BC00ECEBF0E0E8
:1003D00080818823ECF79091B900987F983139F0AB
:1003E00081E0903429F480E0089581E0089580E070
:1003F000089584E98093BC00ECEBF0E0808184FDFB
:10040000FDCF08958093BB0084E88093BC00ECEBA3
:10041000F0E080818823ECF79091B900987F81E02B
:10042000983209F480E0089584EC8093BC00ECEBF2
:10043000F0E080818823ECF78091BB00089584E888
:100440008093BC00ECEBF0E080818823ECF7809196
:10045000BB000895CF93DF93D82FC62F80E40E946E
:10046000D2018D2F0E9402028C2F0E9402020E9454
:10047000F901DF91CF91089560E070E080E090E0B5
:100480000E9400018DE491E00E94300161E070E083
:1004900080E090E00E94000185E291E00E9430013E
:1004A00008954F925F926F927F928F929F92AF9238
:1004B000BF92CF92DF92EF92FF920F931F93CF9351
:1004C000DF93CDB7DEB7A4970FB6F894DEBF0FBEAB
:1004D000CDBF8C016A017B01490184E2E0E0F1E0DB
:1004E000DE01119601900D928A95E1F7CB01BA01D8
:1004F0000E94AA03662E772E482E592E4AE050E01D
:10050000B801862D972D0E94CC04F80180818823A4
:1005100051F098012F5F3F4FF9012F5F3F4F8081CE
:100520008111FACF01C0F8018EE281935F01662D3F
:10053000772D842D952D0E94DD039B01AC01C70111
:10054000B6010E9445036B017C01F401EE0FFF1F11
:10055000EE0FFF1FEC0FFD1F61817281838194817B
:100560000E94DD039B01AC01C701B6010E94690432
:100570000E94AA03CB0199231CF4919581959109BE
:100580004AE050E0B5010E94CC04802F912FA49640
:100590000FB6F894DEBF0FBECDBFDF91CF911F9194
:1005A0000F91FF90EF90DF90CF90BF90AF909F9012
:1005B0008F907F906F905F904F900895CF93DF93CF
:1005C00000D000D0CDB7DEB760E0CE0101960E942A
:1005D000750160E6CE0101960E94C3010E94B6003B
:1005E000BE016D5F7F4FCE0101960E94B1016B810C
:1005F00070E080E090E00E94DD036B017C016C8183
:1006000070E075956795759567957595679575957E
:100610006795882777FD8095982F0E94DD0320E05D
:1006200030E040E85DE30E9469049B01AC01C70132
:10063000B6010E944603C62ED72EE82EF92E23E0DF
:1006400030E0982F4C2D5D2D692F7F2D8DE491E0AA
:100650000E94510226E636E646EE5FE36C2D7D2DC4
:100660008E2D9F2D0E94690420E030E040E052E48E
:100670000E944603AB01BC0123E030E085E291E03B
:100680000E9451020E943C02ABCF5058BB27AA27C0
:100690000ED0E5C0D6D030F0DBD020F031F49F3F53
:1006A00011F41EF4CBC00EF4E095E7FBC1C0E92FB6
:1006B000E7D080F3BA17620773078407950718F02D
:1006C00071F49EF5FFC00EF4E0950B2EBA2FA02D0D
:1006D0000B01B90190010C01CA01A0011124FF27EF
:1006E000591B99F0593F50F4503E68F11A16F040EA
:1006F000A22F232F342F4427585FF3CF46953795E9
:100700002795A795F0405395C9F77EF41F16BA0BAD
:10071000620B730B840BBAF09150A1F0FF0FBB1F5B
:10072000661F771F881FC2F70EC0BA0F621F731FA4
:10073000841F48F4879577956795B795F7959E3F01
:1007400008F0B3CF9395880F08F09927EE0F97958F
:100750008795089504D06894B111B5C0089598D0D4
:1007600088F09F5790F0B92F9927B751A0F0D1F09A
:10077000660F771F881F991F1AF0BA95C9F712C024
:10078000B13081F09FD0B1E008959CC0672F782FE1
:100790008827B85F39F0B93FCCF386957795679590
:1007A000B395D9F73EF490958095709561957F4FFC
:1007B0008F4F9F4F0895E89409C097FB3EF49095A2
:1007C0008095709561957F4F8F4F9F4F9923A9F02A
:1007D000F92F96E9BB279395F695879577956795B9
:1007E000B795F111F8CFFAF4BB0F11F460FF1BC0FD
:1007F0006F5F7F4F8F4F9F4F16C0882311F096E990
:1008000011C0772321F09EE8872F762F05C066233D
:1008100071F096E8862F70E060E02AF09A95660FF6
:10082000771F881FDAF7880F9695879597F90895AF
:1008300097F99F6780E870E060E008959FEF80EC93
:10084000089500240A941616170618060906089536
:1008500000240A9412161306140605060895092E9C
:100860000394000C11F4882352F0BB0F40F4BF2B0B
:1008700011F460FF04C06F5F7F4F8F4F9F4F08954B
:1008800057FD9058440F551F59F05F3F71F0479541
:10089000880F97FB991F61F09F3F79F08795089526
:1008A000121613061406551FF2CF4695F1DF08C045
:1008B000161617061806991FF1CF86957105610562
:1008C00008940895E894BB2766277727CB0197F90A
:1008D00008950BD0C4CFB5DF28F0BADF18F0952308
:1008E00009F0A6CFABCF1124EECFCADFA0F3959FBE
:1008F000D1F3950F50E0551F629FF001729FBB2707
:10090000F00DB11D639FAA27F00DB11DAA1F649FB2
:100910006627B00DA11D661F829F2227B00DA11D65
:10092000621F739FB00DA11D621F839FA00D611DEB
:10093000221F749F3327A00D611D231F849F600D0C
:10094000211D822F762F6A2F11249F5750408AF045
:10095000E1F088234AF0EE0FFF1FBB1F661F771FD1
:10096000881F91505040A9F79E3F510570F060CF0D
:10097000AACF5F3FECF3983EDCF3869577956795B9
:10098000B795F795E7959F5FC1F7FE2B880F911DEF
:100990009695879597F90895FB019F01E894423059
:1009A000C4F04532B4F44A3029F497FB1EF4909514
:1009B00081959F4F642F77270E94FD04805D8A33C5
:1009C0000CF0895D8193CB010097A1F716F45DE2ED
:1009D00051931082C9010C94ED04DC01FC01672FD6
:1009E00071917723E1F7329704C07C916D93708306
:1009F0006291AE17BF07C8F30895AA1BBB1B51E154
:100A000007C0AA1FBB1FA617B70710F0A61BB70B7E
:100A1000881F991F5A95A9F780959095BC01CD0123
:060A20000895F894FFCFD9
:100A2600000000000A00000064000000E803000067
:100A360010270000A086010040420F008096980013
:040A460000E1F505D1
:00000001FF
