:100000000C9434000C9446000C9446000C9446006A
:100010000C9446000C9446000C9446000C94460048
:100020000C9446000C9446000C9446000C94460038
:100030000C9446000C9446000C9446000C94460028
:100040000C9446000C9446000C9448000C947300E9
:100050000C9446000C9446000C9446000C94460008
:100060000C9446000C94460011241FBECFEFD4E040
:10007000DEBFCDBF21E0A0E0B1E001C01D92A534FC
:10008000B207E1F70E94B9000C94D2000C94000072
:100090001F920F920FB60F9211242F938F939F935D
:1000A000EF93FF938091C0002091C6008871E0918A
:1000B0000201EF5FEF7190910101E91739F0E093D0
:1000C0000201F0E0EB5FFE4F208301C082E08093ED
:1000D0000001FF91EF919F918F912F910F900FBE93
:1000E0000F901F9018951F920F920FB60F92112428
:1000F0008F939F93EF93FF9390910401809103015D
:10010000981769F0E0910301EF5FEF71E09303014D
:10011000F0E0EB5DFE4F80818093C60005C0E1EC0E
:10012000F0E080818F7D8083FF91EF919F918F918F
:100130000F900FBE0F901F9018959093C50080935D
:10014000C40088E18093C10086E08093C2000895D6
:10015000E0ECF0E0208125FFFDCFE1ECF0E0208134
:10016000208390FF03C02081216020838093C600FC
:10017000089580E284B983E390E00E949D00C0E28C
:1001800087EA91E60197F1F700C0000085B18C275E
:1001900085B987E090E00E94A8008AE090E00E9484
:0801A000A800EECFF894FFCF98
:00000001FF
