S01F000053656E696F7250726F6A65637448656C6C6F576F726C642E73726563C2
S11300000C9434000C943E000C943E000C943E007E
S11300100C943E000C943E000C943E000C943E0064
S11300200C943E000C943E000C943E000C943E0054
S11300300C943E000C943E000C943E000C943E0044
S11300400C943E000C943E000C943E000C943E0034
S11300500C943E000C943E000C943E000C943E0024
S11300600C943E000C943E0011241FBECFEFD4E04C
S1130070DEBFCDBF0E9447000C9464000C940000C6
S113008080EC8AB98BB18F7380688BB908950E9414
S113009040002FEF89E698E1215080409040E1F73D
S11300A000C000008BB18F7380648BB92FEF89E699
S11300B098E1215080409040E1F700C000008BB1EE
S10F00C08F7380688BB9E5CFF894FFCFF4
S9030000FC
