S01700006932635247422070726163746963652E73726563C9
S11300000C9434000C943E000C943E000C943E007E
S11300100C943E000C943E000C943E000C943E0064
S11300200C943E000C943E000C943E000C943E0054
S11300300C943E000C943E000C943E000C943E0044
S11300400C943E000C943E000C943E000C943E0034
S11300500C943E000C943E000C943E000C943E0024
S11300600C943E000C943E0011241FBECFEFD4E04C
S1130070DEBFCDBF0E94A5000C94BD000C9400000F
S11300801092B90082E08093B800089594EA9093A6
S1130090BC00ECEBF0E090819923ECF79091B9006F
S11300A0987F983011F09031A1F48093BB0084E8DC
S11300B08093BC00ECEBF0E080818823ECF7909116
S11300C0B900987F983139F081E0903429F480E0C8
S11300D0089581E0089580E0089584E98093BC0048
S11300E0ECEBF0E0808184FDFDCF08958093BB00AC
S11300F084E88093BC00ECEBF0E080818823ECF78B
S11301009091B900987F81E0983209F480E00895D5
S11301108FEF84B90E94400008951F93CF93DF931B
S1130120182FD62FC42F84E40E944600812F0E94EA
S113013076008D2F0E9476008C2F0E9476000E94FC
S11301406D00DF91CF911F9108950E9488001FEFE9
S1130150DFEFCFEF00E285B1802785B98FE19EE420
S11301600197F1F700C00000C1501550DA504D2F2F
S1110170612F8C2F0E948D00EECFF894FFCFEC
S9030000FC
