:100000000C9454000C947C000C947C000C947C00A8
:100010000C947C000C947C000C947C000C947C0070
:100020000C947C000C947C000C947C000C947C0060
:100030000C947C000C947C000C947C000C947C0050
:100040000C947C000C947C000C947C000C947C0040
:100050000C947C000C947C000C947C000C947C0030
:100060000C947C000C947C00AE02B202B602BA0280
:10007000BE02C202CC02D002D402DB02DF02E302E3
:100080001603F602290329032903FA022903290387
:100090001A031E0322032603FE02020306030A03B9
:1000A0000E0312033804120511241FBECFEFD4E053
:1000B000DEBFCDBF12E0A0E0B1E0EEE3FAE002C0A7
:1000C00005900D92AE3CB107D9F723E0AEECB2E05B
:1000D00001C01D92AE34B207E1F710E0C8EAD0E0EB
:1000E00004C02297FE010E941905C43AD107C9F73E
:1000F0000E9468040C941D050C94000084B1837C5C
:1001000084B984B18C6284B9611103C081E58CBD6E
:1001100008956CBD08950E947E000895222381F009
:10012000962FA42FB52FE62FF72F81918EBD0DB4FA
:1001300007FEFDCF8EB58D938E2F891B8217A8F3F6
:1001400008956EBD0DB407FEFDCF8EB50895FC0178
:10015000E458FF4F81E09081923009F080E00895EB
:10016000FC0185A186FB882780F90895FC0185A103
:10017000881F8827881F0895FC0185A182958170BA
:100180000895FC0185A183FB882780F908952098B4
:100190002298219A299A0895CF93DF93EC010E9427
:1001A000C70018A28DA180698DA3DF91CF9108951A
:1001B000FC01EA5BFF4F20E030E011922F5F3F4FE0
:1001C00020323105D1F708950F931F93CF93DF931A
:1001D000EC010E94B0008823B9F1FE01EA5BFF4FF9
:1001E0008081811134C030C08DA18F778DA38DA106
:1001F0008F7B80618DA35DC0CE010E94D8002998BD
:1002000060E08EEC92E00E94A1008EA360E08EEC94
:1002100092E00E94A1008EA3282F803208F02FE1E7
:10022000222351F0AE01495D5F4FBE01685B7F4FF5
:100230008EEC92E00E948E00299A8EA18823C9F14B
:100240008DA18F778DA335C02A9933C0D5CF29983A
:1002500085B18E010A5B1F4FF80160818EEC92E040
:100260000E94A1008EA3FE01E95BFF4F60818EEC2E
:1002700092E00E94A1008EA3F801408150E041501D
:100280005109282F30E0241735070CF49A01203249
:1002900008F02FE1AE01495D5F4FBE01685B7F4F03
:1002A0008EEC92E00E948E00299A8EA181119CCF43
:1002B0009ECFDF91CF911F910F910895EF92FF9202
:1002C0000F931F93CF93DF93EC01E62EF72E042FAD
:1002D000152F0E94A70081112CC0CE010E94B000F2
:1002E000811129C0CE010E94BC00811126C0CE011F
:1002F0000E94D800FE01EA5BFF4F85E08083FE018B
:10030000E95BFF4F8FE08083FE01E85BFF4FE082F7
:10031000FE01E75BFF4FF082FE01E65BFF4F0083CB
:10032000FE01E55BFF4F10838DA180648DA380E00B
:1003300005C081E003C082E001C083E0DF91CF917E
:100340001F910F91FF90EF9008951F93CF93DF932C
:10035000EC01162F0E94A70081111BC0CE010E9444
:10036000B000811118C0CE010E94BC00811115C0DF
:10037000CE010E94D800FE01EA5BFF4F81E080833E
:10038000FE01E95BFF4F10838DA180648DA380E0A7
:1003900005C081E003C082E001C083E0DF91CF911E
:1003A0001F9108956CE00E94A501089569E00E94E4
:1003B000A5010895DF92EF92FF920F931F93CF93C1
:1003C000DF93EC01F62E142FD22EE32E0E94A7000D
:1003D000811132C0CE010E94B00081112FC0CE0128
:1003E0000E94BC0081112CC0CE010E94D800FE01E9
:1003F000EA5BFF4F802F8E5F8083FE01E95BFF4F3A
:10040000F082FE01E85BFF4F1083402F50E014168E
:1004100015066CF4ED2DFE2DDE01A75BBF4F80E0CD
:1004200090E021912D93019684179507D4F38DA127
:1004300080648DA380E005C081E003C082E001C03C
:1004400083E0DF91CF911F910F91FF90EF90DF90AC
:1004500008950F93022F9A01462F6DE00E94DA0152
:100460000F910895EF92FF920F931F93CF93DF9315
:10047000EC01062FE42EF52E122F0E94A700811109
:100480002FC0CE010E94B00081112CC0CE010E946D
:10049000BC00811129C0CE010E94D800FE01EA5B98
:1004A000FF4F812F8F5F8083FE01E95BFF4F008349
:1004B000212F30E01216130674F4EE2DFF2DDE010D
:1004C000A85BBF4F40E050E081918D934F5F5F4F3D
:1004D00042175307CCF38DA180648DA380E005C043
:1004E00081E003C082E001C083E0DF91CF911F91E2
:1004F0000F91FF90EF900895CF93DF9300D000D03D
:10050000CDB7DEB769837A834B835C8324E0AE0189
:100510004F5F5F4F60E10E9432020F900F900F908B
:100520000F90DF91CF910895FC01B69620E030E066
:1005300011922F5F3F4F20323105D1F70895CF93AD
:10054000DF93EC0148A550E0FA013197EE31F10557
:1005500008F07FC0EC5CFF4F0C9417058DA18F7ED7
:100560008DA377C08DA18F7E8DA373C08DA18F7E4B
:100570008DA36FC08DA18F7E8DA36BC08DA18F7E4B
:100580008DA367C089A5813019F48DA18F7E8DA3BD
:100590008DA180688DA35DC08DA18F7E8DA359C074
:1005A0008DA18F7E8DA355C08CA58BA31CA28DA180
:1005B0008F7E8DA34EC08DA18F7E8DA34AC08DA14D
:1005C0008F7E8DA346C089A5811109C08BA520E12E
:1005D000829FC00111242AA5822B9AA389A3CE0150
:1005E0000E9494028DA18F7E8DA333C08DA18F7E3A
:1005F0008DA32FC08DA18F7E8DA32BC08DA18F7E4B
:100600008DA327C08DA18F7E8DA323C08DA18F7E4A
:100610008DA31FC08DA18F7E8DA31BC08DA18F7E4A
:100620008DA317C08DA18F7E8DA313C08DA18F7E4A
:100630008DA30FC08DA18F7E8DA30BC08DA18F7E4A
:100640008DA307C08DA18F7E8DA303C08DA18F7E4A
:100650008DA3DF91CF910895CF93DF93EC010E949A
:10066000B600882319F0CE010E949402FE01E458DE
:10067000FF4F8081823009F0F1C0CE010E94B000AE
:100680008111ECC0CE010E94BC008111E7C09091A5
:10069000CF0281E2989FF0011124E050FF4F618169
:1006A00070E0FE01EA5BFF4F20E030E081E2989FBE
:1006B000A001112440505F4FDA01A20FB31F119621
:1006C0008C9181932F5F3F4F62177307ACF78DA119
:1006D00080648DA39F5F9F3018F49093CF02C5C0B4
:1006E0001092CF02CE010E94D800BFC098A1892FDE
:1006F0008F5F88A38FA1883809F465C090F484388F
:1007000009F451C040F48238F1F108F048C0813852
:1007100009F094C019C0863809F44DC008F04FC0E4
:1007200046C08C3809F482C030F48A3809F473C0AA
:1007300008F085C064C08E3809F465C008F47AC03A
:100740008F3809F07BC063C088A5882321F0FE01A3
:10075000E458FF4F8083FE01E458FF4F80818230D0
:1007600021F48DA18F7E8DA30AC0833041F4FE0158
:10077000E358FF4F8AA580838DA18F7E8DA38DA125
:1007800080688DA35CC08EA1888382E8898388A558
:100790008A8389A58B838DA18F7E8DA350C08DA167
:1007A0008F7E8DA34CC0CE010E949F0248C08DA1B8
:1007B00088608DA344C08DA1877E8DA340C08DA18C
:1007C0008F7E8DA33CC09E01285D3F4FCE018A598C
:1007D0009F4FDE01D096BE0162597F4F48E0F9017C
:1007E00051919F01FC015193CF015D91FB01519308
:1007F000BF014150A1F78DA18F7E8DA320C08DA197
:100800008F7E8DA31CC08DA18F7E8DA318C08DA15E
:100810008F7E8DA314C0FE01E358FF4F98A5808101
:10082000890F80838DA18F7E8DA309C08DA18F7EBE
:100830008DA305C08DA18F7E8DA301C098A38DA12E
:1008400080688DA312C02A9B05C0CE010E94B00013
:10085000882359F0CE010E94E40007C0CE010E9417
:10086000B600882309F442CFEECFDF91CF910895EF
:1008700063E78EEC92E00E948B00089510927C005A
:1008800086E880937A0010927B000895E89A83E0CE
:10089000809369001092800010928100089580EC8E
:1008A0008AB98BB18F7380688BB95A9AE89AE8E657
:1008B000F0E0808184608083EDE6F0E080818460F8
:1008C000808378940E943E040E944604419A0895D1
:1008D000CF93DF9300D0CDB7DEB70E944F042FEF48
:1008E00084E39CE0215080409040E1F700C000008C
:1008F000D12C0CE413E00F2EF6E0CF2EF02D0F2EAE
:10090000FDE4EF2EF3E0FF2EF02D0F2EF5E0BF2ECD
:10091000F02DF8018081833009F072C0F3E0DF161A
:1009200061F1FD1530F021E0D216A1F02D15D0F0C7
:1009300009C085E0D81691F1D81650F196E0D91289
:1009400052C037C080ED92E00E94A700882309F4CE
:1009500043C049C080ED92E00E94D2016894DD243A
:10096000D1F841C040E051E060E071E080ED92E0FC
:100970000E945E018823A1F136C040E051E060E0B2
:1009800071E080ED92E00E947C02882359F12BC037
:1009900080ED92E00E94D601DC2C25C022E0AE0161
:1009A0004F5F5F4F62E080ED92E00E942902DC2CF5
:1009B0001AC080ED92E00E94C100811103C06894CA
:1009C000DD24D1F8F7018081882369F019828A81BA
:1009D0008F5F8A83DB2C07C06894DD24D1F803C0C5
:1009E000DC2C01C0DC2CF8018081833049F4FFEF5E
:1009F00024E38CE0F15020408040E1F700C000008B
:100A00008BB18F7380688BB9EFE3FFE13197F1F71A
:100A100000C000008BB18F738BB980ED92E00E9413
:100A20002C0377CF80ED92E00E94CC000895EE0F6A
:0E0A3000FF1F0590F491E02D0994F894FFCF7C
:100A3E00000706000003024207000000000000004D
:100A4E000000000000000000000000000000000098
:100A5E0000001F061000000000000000020002014E
:100A6E00010000060001C10D18000000000000008A
:100A7E000000001F06101C00000000000000000017
:100A8E0000000000000000000001510000015103B1
:100A9E009000FF001F061038FFFF02580A050000E5
:100AAE000151000001510000001000000010000074
:100ABE0000000000000506105400000000000000B9
:100ACE000000000000000000000000000000000018
:100ADE000000000000001F062000040402020001B6
:100AEE0028000100180404050500022803010E0366
:100AFE0000002A041407001F06201C0700032A000A
:100B0E000150756C73654F780404050500042803C5
:100B1E0001020500012A06001F0620380403020008
:100B2E00052A0101424204040505000628030102BC
:100B3E000700042A06040908001F06205400072A8D
:100B4E000401060006000000FFFF04040202000874
:100B5E00280001011804040202001F06207000097B
:100B6E002800010D1804040505000A280301020BD4
:100B7E0000372A04040201000B2A000806208C37D5
:100B8E000100000000000000000000000000000056
:100B9E0000000000000000000000000017064000EA
:100BAE002A0001008004000300002A37010080049F
:100BBE00000B0000000000000000000000090660AD
:100BCE000000000000000000000000000000000017
:100BDE0000000000000000000000000000000606FB
:100BEE00F00003587200000000000000000000003A
:0E0BFE000000000000000000000000000000E9
:00000001FF
