S016000053657269616C50726163746963652E7372656383
S11300000C9434000C9449000C9449000C9449005D
S11300100C9449000C9449000C9449000C94490038
S11300200C9449000C9449000C9449000C94490028
S11300300C9449000C9449000C9449000C94490018
S11300400C9449000C9449000C9449000C94490008
S11300500C9449000C9449000C9449000C944900F8
S11300600C9449000C94490011241FBECFEFD4E036
S1130070DEBFCDBF11E0A0E0B1E0E2E3F1E002C0F9
S113008005900D92AA36B107D9F70E947B000C9413
S113009097000C9400009093C5008093C40088E1FD
S11300A08093C10086E48093C2000895E0ECF0E000
S11300B0908195FFFDCF8093C6000895E0ECF0E0B9
S11300C080818823ECF78091C60008958091C00058
S11300D0881F8827881F0895CF93DF93EC018881B8
S11300E0882331F021960E94560089918111FBCF1B
S11300F0DF91CF91089514B815B889E190E00E947A
S11301004B0080E091E00E946C008AE191E00E9443
S11301106C000E946600882329F00E945E008F5FB5
S11301200E94560082E591E00E946C00F2CFF894A0
S1050130FFCFFB
S1130132526561647920746F20726F636B20616E03
S11301426420726F6C6C210A0D0054797065206909
S11301526E2061206368617261637465722C206130
S11301626E6420492077696C6C207472616E7370BE
S11301726F736520697420757020627920313A0AA0
S11301820D004F554348212053746F7020706F6BDC
S10D0192696E67206D65210A0D00F7
S9030000FC
