S01500004443494D756C74696D657465722E7372656317
S11300000C9434000C9451000C9451000C94510045
S11300100C9451000C9451000C9451000C94510018
S11300200C9451000C9451000C9451000C94510008
S11300300C9451000C9451000C9451000C945100F8
S11300400C9451000C9451000C9451000C945100E8
S11300500C9451000C9451000C9451000C945100D8
S11300600C9451000C94510011241FBECFEFD4E026
S1130070DEBFCDBF11E0A0E0B1E0ECE9F7E102C0E2
S113008005900D92A438B107D9F722E0A4E8B1E0B5
S113009001C01D92A833B207E1F70E9485050C94B4
S11300A0CC0B0C94000029B130E1839FC0011124D2
S11300B02F70822B8BB90895CF93C62F2898811166
S11300C002C0299801C0299A85E88A95F1F70000B1
S11300D08C2F82958F700E945300289A85E88A9508
S11300E0F1F7000028988C2F8F700E945300289AF3
S11300F085E88A95F1F700002898CF91089561E08A
S113010080E00E945C0010928A0110928B012FE71C
S113011088E391E0215080409040E1F700C0000066
S113012008958BB18F708BB984B1836084B985B124
S11301308C7F85B98FE295E70197F1F700C0000045
S11301402898299882E00E945300289A95E89A9565
S1130150F1F70000289868E280E00E945C006CE0FF
S113016080E00E945C0066E080E00E945C001092E7
S11301708A0110928B0108950F931F93CF93DF93FD
S11301808C01EB016230710549F06330710549F06F
S11301906130710549F060E070E008C064E170E02E
S11301A005C064E570E002C060E470E0600F711F98
S11301B060687F6F80E00E945C0000938A01C093B6
S11301C08B01DF91CF911F910F910895EF92FF92D0
S11301D00F931F93CF93DF93E82EF92E082F192F37
S11301E0C0E0D0E022C0F80161918F0181E00E945B
S11301F05C0020918A012F5F283219F020938A0134
S113020013C010928A0180918B018F5F823019F0A4
S113021080938B0102C010928B0160918B0170E07E
S113022080E090E00E94BC002196EE2DFF2DDF01BE
S11302300D900020E9F71197AE1BBF0BCA17DB071F
S113024090F2DF91CF911F910F91FF90EF9008955D
S11302501092B9008CE08093B800089594EA9093CA
S1130260BC00ECEBF0E090819923ECF79091B9009D
S1130270987F983011F09031A1F48093BB0084E80A
S11302808093BC00ECEBF0E080818823ECF7909144
S1130290B900987F983139F081E0903429F480E0F6
S11302A0089581E0089580E0089584E98093BC0076
S11302B0ECEBF0E0808184FDFDCF08958093BB00DA
S11302C084E88093BC00ECEBF0E080818823ECF7B9
S11302D09091B900987F81E0983209F480E0089504
S11302E00E9428010895FF920F931F93CF93DF93E9
S11302F0F82E062FC2E3D0E080EC0E942E01182FC6
S1130300811109C08F2D0E945E01802F0E945E0121
S11303100E94550102C00E945501219769F7812F5F
S1130320DF91CF911F910F91FF9008954F925F92AB
S11303306F927F92AF92BF92CF92DF92EF92FF9231
S11303400F931F93CF93DF9300D000D0CDB7DEB7C8
S1130350B82E2A013B0109831A832B833C8380EC4A
S11303600E942E01813009F449C01B2D110F110F79
S1130370110F99278F2D7E2D6D2D812F865D0E9463
S113038073016C2D812F855D0E9473018A2D877006
S1130390A82EAA0CAA0CAA0CAA0C662D63706A29B2
S11303A0812F845D0E9473019927872D762D652DF9
S11303B0812F835D0E947301642D812F825D0E94D1
S11303C073018E2D8295807F6B816F70682B812FD6
S11303D0815D0E94730129813A814B815C81992757
S11303E0852F742F632F812F805D0E947301642DEC
S11303F0812F8F5C0E94730180E001C081E00F9027
S11304000F900F900F90DF91CF911F910F91FF905C
S1130410EF90DF90CF90BF90AF907F906F905F9000
S11304204F9008954F925F926F927F928F929F9216
S1130430AF92BF92CF92DF92EF92FF920F931F93EE
S11304404B015C0129013A016701780180EC0E94AB
S11304502E0199278F2D7E2D6D2D8AE10E94730127
S11304606C2D8BE10E947301C501AA27BB27BC0137
S1130470CD0163707727882799278CE10E94730147
S113048099278B2D7A2D692D8DE10E947301682D9A
S11304908EE10E9473018E2D8295807F662D6F7090
S11304A0682B8FE10E9473019927872D762D652D86
S11304B080E20E947301682D81E20E9473011F9102
S11304C00F91FF90EF90DF90CF90BF90AF909F90EF
S11304D08F907F906F905F904F900895837090E419
S11304E0899FB0011124626187EB0E947301089512
S11304F0E4E6F0E080818E7F808386E880937A0052
S11305000895E89A83E08093690010928000109225
S11305108100089560E070E080E090E00E94BC00FB
S113052080EC91E00E94E60061E070E080E090E001
S11305300E94BC0080E192E00E94E60062E070E06C
S113054080E090E00E94BC0088EE91E00E94E6000A
S113055063E070E080E090E00E94BC0084E991E0F8
S11305600E94E600089584E1ECE2F1E0A0ECB1E041
S113057001900D928A95E1F78FE0E0E4F1E0A0E1CB
S1130580B2E001900D928A95E1F70E948A022FEF62
S113059084E39CE0215080409040E1F700C00000DB
S11305A00E947F0008954F925F926F927F928F9284
S11305B09F92AF92BF92CF92DF92EF92FF920F93EE
S11305C01F93CF93DF93CDB7DEB7A4970FB6F894FC
S11305D0DEBF0FBECDBF882E992E2A013B015901E3
S11305E084E2E8E0F1E0DE01119601900D928A9533
S11305F0E1F7CB01BA010E943D07C62ED72EE82EA3
S1130600F92E8AE0C816D104E104F1043CF4082D63
S1130610192D80E2F80181938F0102C0082D192D54
S11306204AE050E0B801C6010E94B208F801808196
S1130630882341F0C80101968C010196F8012081BC
S11306402111FACF8EE2F80181938F01C701B6011F
S11306500E9470079B01AC01C301B2010E947006A5
S11306606B017C01F501EE0FFF1FEE0FFF1FEC0F76
S1130670FD1F61817281838194810E9470079B01B7
S1130680AC01C701B6010E944F080E943D07CB018F
S113069099231CF49195819591094AE050E0B801A1
S11306A00E94B208882D992DA4960FB6F894DEBF47
S11306B00FBECDBFDF91CF911F910F91FF90EF90AF
S11306C0DF90CF90BF90AF909F908F907F906F906E
S11306D05F904F9008958F929F92AF92BF92CF9266
S11306E0DF92EF92FF920F931F93CF93DF93CDB7D7
S11306F0DEB7A8970FB6F894DEBF0FBECDBF490191
S11307005A0119821A821B821C82FE01359624E248
S1130710DF011D922A95E9F722E030E0AB01BC012C
S11307208E010F5F1F4FC8010E94D3021F930F93C6
S11307308FE491E09F938F9380EC91E09F938F934C
S11307400E94D30822E030E0B501A401C8010E9450
S1130750D3021F930F938FE591E09F938F9380E1D2
S113076092E09F938F930E94D308C701B6010E9421
S11307703D079F938F937F936F9381E791E09F93BE
S11307808F9388EE91E09F938F930E94D3080FB6C6
S1130790F894DEBF0FBECDBFA8960FB6F894DEBFA7
S11307A00FBECDBFDF91CF911F910F91FF90EF90BE
S11307B0DF90CF90BF90AF909F908F900895599AFB
S11307C0589808958F929F92AF92BF92CF92DF92E2
S11307D0EF92FF920F931F93CF93DF93BC0180E0BE
S11307E090E00E946E072091040130910501409130
S11307F00601509107010E944F0820E030E040E1DB
S113080051E40E947106062F172FD82FC92F862F67
S1130810912FAD2FBC2F8093BC019093BD01A09369
S1130820BE01B093BF01602F712F8D2F9C2F0E94AA
S1130830AB074B015C016091000170910101809153
S11308400201909103010E946E076B017C01A501D6
S11308509401602F712F8D2F9C2F0E947006A70189
S113086096010E944F080E94AB0720E030E040E070
S113087053E40E944F08062F172FD82FC92FA70122
S113088096010E94D5060E94AB076B017C0120E013
S113089030E040E053E4C501B4010E944F08A701D1
S11308A096010E94710620E030E040E054E40E948A
S11308B070060E94420760939001709391018093A7
S11308C0920190939301602F712F8D2F9C2F0E9482
S11308D0AB079B01AC01602F712F8D2F9C2F0E94C1
S11308E071060E94420760938C0170938D0180937E
S11308F08E0190938F016FEF83E00E947301C0908B
S11309000001D0900101E0900201F09003010091F8
S11309108C0110918D0120918E0130918F014091B5
S113092090015091910160919201709193010F2E69
S1130930F5E0AF2EF02D81E00E949601C82FC09003
S11309400001D0900101E0900201F09003010091B8
S11309508C0110918D0120918E0130918F01409175
S1130960900150919101609192017091930180E006
S11309700E949601C82B60EA81EB0E94730160E03B
S113098083E00E9473018C2F8160DF91CF911F91CE
S11309900F91FF90EF90DF90CF90BF90AF909F901A
S11309A08F90089510928100109285001092840017
S11309B081E08CBBE09BFECF81E0809381008CBB07
S11309C088EC90E021E0E09BFECF2CBB0197D9F7A7
S11309D01092810080918400909185009093890108
S11309E0809388010895BC0180E090E00E946E0726
S11309F09B01AC0160EC74EB87EC99E40E94D50692
S1130A000895806480937C00EAE7F0E0808180644C
S1130A108083808184FFFDCFEAE7F0E080818061FC
S1130A2080830895EF92FF920F931F93E12CF12C92
S1130A308701E39420E030E0A90160E07AE080E0FF
S1130A4090E00E94120286E00E94010580917800E5
S1130A50909179000E94E20383E00E946E026FE0AD
S1130A6080E10E9473016FE181E10E9473011F9193
S1130A700F91FF90EF900895CF930E9470016FEF54
S1130A8083E00E947301C82F60E880E10E94730133
S1130A9060E881E10E94730160E882E10E947301D1
S1130AA060E883E10E94730160E884E10E947301BD
S1130AB060E885E10E94730160E886E10E947301A9
S1130AC060E887E10E94730160E082E00E947301A4
S1130AD00E94120560EA81EB0E94730160E083E0EA
S1130AE00E9473018C2FCF9108951BB883EF8AB9AC
S1130AF00E94DF030E9491000E947F000E947802FE
S1130B000E9481020E943C0508952FEF80E792E045
S1130B10215080409040E1F700C000000E9475051C
S1130B200E94B302A12CB12CC8E7D0E080E00E945F
S1130B3001056881798180E090E00E946E0723E3DB
S1130B4033E343E550E40E944F0820E030E040E8FE
S1130B505AE30E944F0828E431EE46EC51E40E9427
S1130B604F08662E772E882E992E81E00E9401056B
S1130B706881798180E090E00E946E0723E333E38B
S1130B8043E550E40E944F0820E030E040E85AE397
S1130B900E944F0820E030E041E653E40E944F08F1
S1130BA0262E372E482E592E86E00E9401050881F4
S1130BB01981C8018A199B091AF4919581959109A3
S1130BC002970CF463C0043F21E01207A0F4B801BB
S1130BD080E090E00E946E0720E030E048EC52E4B0
S1130BE00E944F0820E030E04AEF53E40E94D5060B
S1130BF00E943D073BC0003283E01807E0F4B801CF
S1130C0080E090E00E946E0720E030E04AEF53E479
S1130C100E94700620E030E04AEF53E40E944F083F
S1130C2020E030E046E953E40E94D5060E943D07E7
S1130C306C597F4F1BC0B80180E090E00E946E07A2
S1130C4020E030E048E454E40E94700620E030E004
S1130C5048EC53E40E944F0820E030E048E453E4B9
S1130C600E94D5060E943D07685A7D4F80E090E0BF
S1130C700E946E0720E030E040EB50E40E94D5066D
S1130C800E944207CB010E94E20358010E94D20451
S1130C9080918801909189010E94F3046B017C0189
S1130CA060938401709385018093860190938701FA
S1130CB06091BC017091BD018091BE019091BF0112
S1130CC00E9442078B01222D332D442D552D662D74
S1130CD0772D882D992D0E946B030E948A0226CFBE
S1130CE05058BB27AA270ED089C17AD130F07FD1C2
S1130CF020F031F49F3F11F41EF46FC10EF4E0951F
S1130D00E7FB3CC1E92F8BD180F3BA176207730765
S1130D108407950718F071F49EF5BAC10EF4E095B6
S1130D200B2EBA2FA02D0B01B90190010C01CA01A1
S1130D30A0011124FF27591B99F0593F50F4503E4C
S1130D4068F11A16F040A22F232F342F4427585F3E
S1130D50F3CF469537952795A795F0405395C9F756
S1130D607EF41F16BA0B620B730B840BBAF091500E
S1130D70A1F0FF0FBB1F661F771F881FC2F70EC0AD
S1130D80BA0F621F731F841F48F487957795679580
S1130D90B795F7959E3F08F0B3CF9395880F08F069
S1130DA09927EE0F9795879508950CD027C11FD1E9
S1130DB040F016D130F021F45F3F19F0DFC051113B
S1130DC068C10BC12CD198F39923C9F35523B1F30E
S1130DD0951B550BBB27AA2762177307840738F0A6
S1130DE09F5F5F4F220F331F441FAA1FA9F333D005
S1130DF00E2E3AF0E0E830D091505040E695001CB9
S1130E00CAF729D0FE2F27D0660F771F881FBB1F74
S1130E10261737074807AB07B0E809F0BB0B802D4E
S1130E20BF01FF2793585F4F2AF09E3F510568F09A
S1130E30A5C02FC15F3FECF3983EDCF38695779510
S1130E406795B795F7959F5FC9F7880F911D96959C
S1130E50879597F90895E1E0660F771F881FBB1FF8
S1130E60621773078407BA0720F0621B730B840BA5
S1130E70BA0BEE1F88F7E095089504D06894B11179
S1130E8008C10895D4D088F09F5790F0B92F9927BE
S1130E90B751A0F0D1F0660F771F881F991F1AF081
S1130EA0BA95C9F712C0B13081F0F2D0B1E008951B
S1130EB0EFC0672F782F8827B85F39F0B93FCCF39C
S1130EC0869577956795B395D9F73EF49095809577
S1130ED0709561957F4F8F4F9F4F0895E89409C097
S1130EE097FB3EF490958095709561957F4F8F4F59
S1130EF09F4F9923A9F0F92F96E9BB279395F6956F
S1130F00879577956795B795F111F8CFFAF4BB0FEC
S1130F1011F460FF1BC06F5F7F4F8F4F9F4F16C050
S1130F20882311F096E911C0772321F09EE8872FDA
S1130F30762F05C0662371F096E8862F70E060E096
S1130F402AF09A95660F771F881FDAF7880F96950F
S1130F50879597F9089585D080F09F3740F49111D3
S1130F600EF097C060E070E080E89FEB089526F4EF
S1130F701B16611D711D811D07C021C097F99F6754
S1130F8080E870E060E00895882371F4772321F00D
S1130F909850872B762F07C0662311F499270DC02C
S1130FA09051862B70E060E02AF09A95660F771FC7
S1130FB0881FDAF7880F9695879597F908959F3FCC
S1130FC031F0915020F4879577956795B795880F00
S1130FD0911D9695879597F908959FEF80EC089554
S1130FE000240A9416161706180609060895002404
S1130FF00A9412161306140605060895092E03947E
S1131000000C11F4882352F0BB0F40F4BF2B11F4F1
S113101060FF04C06F5F7F4F8F4F9F4F089557FD50
S11310209058440F551F59F05F3F71F04795880F52
S113103097FB991F61F09F3F79F0879508951216E9
S113104013061406551FF2CF4695F1DF08C0161695
S113105017061806991FF1CF869571056105089446
S11310600895E5DFA0F0BEE7B91788F4BB279F38E1
S113107060F41616B11D672F782F8827985FF7CF75
S1131080869577956795B11D93959639C8F308951C
S1131090E894BB2766277727CB0197F908950BD0EF
S11310A0ADCF9EDF28F0A3DF18F0952309F066CFBB
S11310B094CF1124EECFB3DFA0F3959FD1F3950F16
S11310C050E0551F629FF001729FBB27F00DB11DC8
S11310D0639FAA27F00DB11DAA1F649F6627B00D58
S11310E0A11D661F829F2227B00DA11D621F739F41
S11310F0B00DA11D621F839FA00D611D221F749F4F
S11311003327A00D611D231F849F600D211D822F95
S1131110762F6A2F11249F5750408AF0E1F08823DC
S11311204AF0EE0FFF1FBB1F661F771F881F9150E9
S11311305040A9F79E3F510570F020CFAACF5F3FE2
S1131140ECF3983EDCF3869577956795B795F7951C
S1131150E7959F5FC1F7FE2B880F911D96958795A4
S113116097F90895FB019F01E8944230C4F0453299
S1131170B4F44A3029F497FB1EF4909581959F4F5F
S1131180642F77270E94810B805D8A330CF0895D80
S11311908193CB010097A1F716F45DE2519310827D
S11311A0C9010C94E70AAEE0B0E0E9EDF8E00C9474
S11311B0A30B0D891E8986E08C831A8309838FEF24
S11311C09FE79E838D83CE014996AC016F89788D0C
S11311D0CE0101960E94F508EF81F885E00FF11F1A
S11311E010822E96E4E00C94BF0BACE0B0E0EBEF81
S11311F0F8E00C94950B7C016B018A01FC011782C9
S11312001682838181FFC6C188248394912C8C0E1D
S11312109D1EF7019381F60193FD859193FF8191C2
S11312206F01882309F4B2C1853239F493FD8591A5
S113123093FF81916F01853229F4B70190E00E94F8
S1131240F70AE7CF512C312C20E02032A8F48B325E
S113125061F028F4803251F0833271F40BC08D3286
S113126039F0803349F4216028C02260246025C00D
S1131270286023C0206121C027FD27C0382F3053A8
S11312803A3078F426FF06C0FAE05F9E300D112450
S1131290532E13C08AE0389E300D1124332E206261
S11312A00CC08E3221F426FD71C1206406C08C3638
S11312B011F4206802C0883641F4F60193FD85914B
S11312C093FF81916F018111C0CF982F9554933072
S11312D018F09052933028F40C5F1F4FFFE3F9830A
S11312E00DC0833631F0833771F0833509F05EC069
S11312F023C0F801808189830E5F1F4F44244394E7
S1131300512C540115C03801F2E06F0E711CF80124
S1131310A080B18026FF03C0652D70E002C06FEF8E
S11313207FEFC5012C870E94DC0A2C0183012C85E8
S11313306FE7262E222218C03801F2E06F0E711CCE
S1131340F801A080B18026FF03C0652D70E002C0C3
S11313506FEF7FEFC5012C870E94D10A2C012C85E9
S113136050E8252E222A830123FC1CC006C0B701A5
S113137080E290E00E94F70A3A94832D90E04816A8
S11313805906A8F30FC0F50127FC859127FE81912A
S11313905F01B70190E00E94F70A31103A94F1E03E
S11313A04F1A51084114510471F7EDC0843611F0FD
S11313B0893641F5F80127FF07C060817181828178
S11313C093810C5F1F4F08C060817181882777FD6E
S11313D08095982F0E5F1F4F4FE6B42EB22297FFD1
S11313E009C090958095709561957F4F8F4F9F4F61
S11313F0F0E8BF2A2AE030E0A4010E94230BA82EC3
S1131400A81843C0853731F43FEEB32EB2222AE048
S113141030E024C099EFB92EB2228F36B9F020F40F
S1131420883509F0B3C00DC0803721F0883709F042
S1131430ADC002C020E1B22AB4FE0BC084E0B82AD9
S113144008C024FF09C0E6E0BE2A06C028E030E058
S113145005C020E130E002C020E132E0F801B7FE2F
S113146007C060817181828193810C5F1F4F06C028
S11314706081718180E090E00E5F1F4FA4010E94A3
S1131480230BA82EA818FFE7BF22B6FE0BC02B2DF6
S11314902E7FA51450F4B4FE0AC0B2FC08C02B2D54
S11314A02E7E05C07A2C2B2D03C07A2C01C0752CFE
S11314B024FF0DC0FE01EA0DF11D8081803311F47B
S11314C0297E09C022FF06C07394739404C0822F3E
S11314D0867809F0739423FD14C020FF0FC05A2CA2
S11314E0731460F4530C5718732C08C0B70180E2CE
S11314F090E02C870E94F70A73942C857314B0F340
S113150004C0731410F4371801C0312C24FF12C026
S1131510B70180E390E02C870E94F70A2C8522FF14
S11315201EC021FF03C088E590E002C088E790E078
S1131530B7010CC0822F867891F021FD02C080E2B1
S113154001C08BE227FD8DE2B70190E00E94F70A0B
S113155006C0B70180E390E00E94F70A5A94A514EC
S1131560C0F3AA94F401EA0DF11DB701808190E063
S11315700E94F70AA110F5CF06C0B70180E290E0FF
S11315800E94F70A3A943110F8CF43CEF70126812E
S1131590378102C02FEF3FEFC9012C96E2E10C9492
S11315A0B10BFC010590615070400110D8F7809593
S11315B090958E0F9F1F0895FC016150704001901B
S11315C00110D8F7809590958E0F9F1F0895DC0128
S11315D0FC01672F71917723E1F7329704C07C9166
S11315E06D9370836291AE17BF07C8F308950F938C
S11315F01F93CF93DF938C01EB018B8181FD03C09B
S11316000FEF1FEF1AC082FF0DC02E813F818C8126
S11316109D812817390764F4E881F9810193F983DE
S1131620E88306C0E885F985802F0995892B41F761
S11316308E819F8101969F838E83C801DF91CF9114
S11316401F910F910895FA01AA27283051F12031F2
S113165081F1E8946F936E7F6E5F7F4F8F4F9F4F42
S1131660AF4FB1E03ED0B4E03CD0670F781F891F84
S11316709A1FA11D680F791F8A1F911DA11D6A0F52
S1131680711D811D911DA11D20D009F468943F9105
S11316902AE0269F11243019305D3193DEF6CF0104
S11316A00895462F4770405D4193B3E00FD0C9F7CA
S11316B0F6CF462F4F70405D4A3318F0495D31FD37
S11316C04052419302D0A9F7EACFB4E0A69597958A
S11316D0879577956795BA95C9F700976105710560
S11316E008959B01AC010A2E0694579547953795AA
S11316F02795BA95C9F7620F731F841F951FA01D04
S11317000895AA1BBB1B51E107C0AA1FBB1FA61744
S1131710B70710F0A61BB70B881F991F5A95A9F796
S113172080959095BC01CD0108952F923F924F92E0
S11317305F926F927F928F929F92AF92BF92CF925D
S1131740DF92EF92FF920F931F93CF93DF93CDB766
S1131750DEB7CA1BDB0B0FB6F894DEBF0FBECDBFDE
S113176009942A88398848885F846E847D848C84AF
S11317709B84AA84B984C884DF80EE80FD800C81B8
S11317801B81AA81B981CE0FD11D0FB6F894DEBF9B
S10F17900FBECDBFED010895F894FFCF0B
S113179C000400000000BE3D000000000A00000030
S11317AC64000000E803000010270000A08601007C
S11317BC40420F008096980000E1F505446573697A
S11317CC676E20437269746572696120496E6300A7
S11317DC2838303129203339332D31343134005603
S11317EC6F6C746167653A20202573205620004382
S11317FC757272656E743A2020202573206D412019
S113180C0052656164696E673A2025346C64206B00
S107181C487A2000E2
S9030000FC
